{
  "contractName": "AdContract",
  "abi": [
    {
      "inputs": [],
      "stateMutability": "nonpayable",
      "type": "constructor"
    },
    {
      "anonymous": false,
      "inputs": [
        {
          "indexed": true,
          "internalType": "uint256",
          "name": "adId",
          "type": "uint256"
        },
        {
          "indexed": true,
          "internalType": "uint256",
          "name": "advertiserId",
          "type": "uint256"
        },
        {
          "indexed": false,
          "internalType": "uint256",
          "name": "reward",
          "type": "uint256"
        }
      ],
      "name": "AdCreated",
      "type": "event"
    },
    {
      "anonymous": false,
      "inputs": [
        {
          "indexed": true,
          "internalType": "address",
          "name": "user",
          "type": "address"
        },
        {
          "indexed": false,
          "internalType": "uint256",
          "name": "amount",
          "type": "uint256"
        }
      ],
      "name": "DepositSuccess",
      "type": "event"
    },
    {
      "anonymous": false,
      "inputs": [
        {
          "indexed": true,
          "internalType": "uint256",
          "name": "adId",
          "type": "uint256"
        },
        {
          "indexed": true,
          "internalType": "uint256",
          "name": "influencerId",
          "type": "uint256"
        }
      ],
      "name": "JoinedAd",
      "type": "event"
    },
    {
      "anonymous": false,
      "inputs": [
        {
          "indexed": true,
          "internalType": "uint256",
          "name": "adId",
          "type": "uint256"
        },
        {
          "indexed": true,
          "internalType": "uint256",
          "name": "influencerId",
          "type": "uint256"
        },
        {
          "indexed": true,
          "internalType": "address",
          "name": "walletAddress",
          "type": "address"
        },
        {
          "indexed": false,
          "internalType": "uint256",
          "name": "reward",
          "type": "uint256"
        }
      ],
      "name": "PaidInfluencer",
      "type": "event"
    },
    {
      "anonymous": false,
      "inputs": [
        {
          "indexed": true,
          "internalType": "uint256",
          "name": "adId",
          "type": "uint256"
        },
        {
          "indexed": true,
          "internalType": "uint256",
          "name": "advertiserId",
          "type": "uint256"
        },
        {
          "indexed": true,
          "internalType": "address",
          "name": "walletAddress",
          "type": "address"
        },
        {
          "indexed": false,
          "internalType": "uint256",
          "name": "amount",
          "type": "uint256"
        }
      ],
      "name": "RefundedAdvertiser",
      "type": "event"
    },
    {
      "inputs": [
        {
          "internalType": "uint256",
          "name": "",
          "type": "uint256"
        },
        {
          "internalType": "uint256",
          "name": "",
          "type": "uint256"
        }
      ],
      "name": "adInfluencerMap",
      "outputs": [
        {
          "internalType": "uint256",
          "name": "influencerId",
          "type": "uint256"
        },
        {
          "internalType": "bool",
          "name": "paid",
          "type": "bool"
        },
        {
          "internalType": "uint256",
          "name": "joinTime",
          "type": "uint256"
        }
      ],
      "stateMutability": "view",
      "type": "function",
      "constant": true
    },
    {
      "inputs": [
        {
          "internalType": "uint256",
          "name": "",
          "type": "uint256"
        },
        {
          "internalType": "uint256",
          "name": "",
          "type": "uint256"
        }
      ],
      "name": "adJoinedInfluencers",
      "outputs": [
        {
          "internalType": "uint256",
          "name": "",
          "type": "uint256"
        }
      ],
      "stateMutability": "view",
      "type": "function",
      "constant": true
    },
    {
      "inputs": [
        {
          "internalType": "uint256",
          "name": "",
          "type": "uint256"
        }
      ],
      "name": "ads",
      "outputs": [
        {
          "internalType": "uint256",
          "name": "advertiserId",
          "type": "uint256"
        },
        {
          "internalType": "uint256",
          "name": "reward",
          "type": "uint256"
        },
        {
          "internalType": "uint256",
          "name": "maxInfluencer",
          "type": "uint256"
        },
        {
          "internalType": "uint256",
          "name": "deadline",
          "type": "uint256"
        },
        {
          "internalType": "bytes32",
          "name": "metadataHash",
          "type": "bytes32"
        },
        {
          "internalType": "uint256",
          "name": "acceptedCount",
          "type": "uint256"
        },
        {
          "internalType": "bool",
          "name": "isClosed",
          "type": "bool"
        },
        {
          "internalType": "bool",
          "name": "isRefunded",
          "type": "bool"
        }
      ],
      "stateMutability": "view",
      "type": "function",
      "constant": true
    },
    {
      "inputs": [
        {
          "internalType": "uint256",
          "name": "",
          "type": "uint256"
        },
        {
          "internalType": "uint256",
          "name": "",
          "type": "uint256"
        }
      ],
      "name": "hasJoinedAd",
      "outputs": [
        {
          "internalType": "bool",
          "name": "",
          "type": "bool"
        }
      ],
      "stateMutability": "view",
      "type": "function",
      "constant": true
    },
    {
      "inputs": [],
      "name": "nextAdId",
      "outputs": [
        {
          "internalType": "uint256",
          "name": "",
          "type": "uint256"
        }
      ],
      "stateMutability": "view",
      "type": "function",
      "constant": true
    },
    {
      "inputs": [],
      "name": "deposit",
      "outputs": [],
      "stateMutability": "payable",
      "type": "function",
      "payable": true
    },
    {
      "inputs": [
        {
          "internalType": "uint256",
          "name": "advertiserId",
          "type": "uint256"
        },
        {
          "internalType": "uint256",
          "name": "reward",
          "type": "uint256"
        },
        {
          "internalType": "uint256",
          "name": "maxInfluencer",
          "type": "uint256"
        },
        {
          "internalType": "uint256",
          "name": "deadline",
          "type": "uint256"
        },
        {
          "internalType": "bytes32",
          "name": "metadataHash",
          "type": "bytes32"
        }
      ],
      "name": "addContract",
      "outputs": [],
      "stateMutability": "payable",
      "type": "function",
      "payable": true
    },
    {
      "inputs": [
        {
          "internalType": "uint256",
          "name": "adId",
          "type": "uint256"
        },
        {
          "internalType": "uint256",
          "name": "influencerId",
          "type": "uint256"
        }
      ],
      "name": "joinAd",
      "outputs": [],
      "stateMutability": "nonpayable",
      "type": "function"
    },
    {
      "inputs": [
        {
          "internalType": "uint256",
          "name": "adId",
          "type": "uint256"
        },
        {
          "internalType": "uint256",
          "name": "influencerId",
          "type": "uint256"
        },
        {
          "internalType": "address",
          "name": "walletAddress",
          "type": "address"
        }
      ],
      "name": "payInfluencer",
      "outputs": [],
      "stateMutability": "nonpayable",
      "type": "function"
    },
    {
      "inputs": [
        {
          "internalType": "uint256",
          "name": "adId",
          "type": "uint256"
        },
        {
          "internalType": "uint256[]",
          "name": "influencerIds",
          "type": "uint256[]"
        },
        {
          "internalType": "address[]",
          "name": "walletAddresses",
          "type": "address[]"
        }
      ],
      "name": "payMultipleInfluencers",
      "outputs": [],
      "stateMutability": "nonpayable",
      "type": "function"
    },
    {
      "inputs": [
        {
          "internalType": "uint256",
          "name": "adId",
          "type": "uint256"
        },
        {
          "internalType": "address",
          "name": "advertiserWalletAddress",
          "type": "address"
        }
      ],
      "name": "refundAdvertiser",
      "outputs": [],
      "stateMutability": "nonpayable",
      "type": "function"
    },
    {
      "inputs": [
        {
          "internalType": "uint256",
          "name": "adId",
          "type": "uint256"
        },
        {
          "internalType": "uint256",
          "name": "influencerId",
          "type": "uint256"
        }
      ],
      "name": "getInfluencerInfo",
      "outputs": [
        {
          "internalType": "uint256",
          "name": "",
          "type": "uint256"
        },
        {
          "internalType": "bool",
          "name": "",
          "type": "bool"
        },
        {
          "internalType": "uint256",
          "name": "",
          "type": "uint256"
        }
      ],
      "stateMutability": "view",
      "type": "function",
      "constant": true
    },
    {
      "inputs": [
        {
          "internalType": "uint256",
          "name": "adId",
          "type": "uint256"
        }
      ],
      "name": "getAd",
      "outputs": [
        {
          "components": [
            {
              "internalType": "uint256",
              "name": "advertiserId",
              "type": "uint256"
            },
            {
              "internalType": "uint256",
              "name": "reward",
              "type": "uint256"
            },
            {
              "internalType": "uint256",
              "name": "maxInfluencer",
              "type": "uint256"
            },
            {
              "internalType": "uint256",
              "name": "deadline",
              "type": "uint256"
            },
            {
              "internalType": "bytes32",
              "name": "metadataHash",
              "type": "bytes32"
            },
            {
              "internalType": "uint256",
              "name": "acceptedCount",
              "type": "uint256"
            },
            {
              "internalType": "bool",
              "name": "isClosed",
              "type": "bool"
            },
            {
              "internalType": "bool",
              "name": "isRefunded",
              "type": "bool"
            }
          ],
          "internalType": "struct AdContract.Ad",
          "name": "",
          "type": "tuple"
        }
      ],
      "stateMutability": "view",
      "type": "function",
      "constant": true
    },
    {
      "inputs": [
        {
          "internalType": "uint256",
          "name": "adId",
          "type": "uint256"
        },
        {
          "internalType": "uint256",
          "name": "influencerId",
          "type": "uint256"
        }
      ],
      "name": "checkJoinStatus",
      "outputs": [
        {
          "internalType": "bool",
          "name": "",
          "type": "bool"
        }
      ],
      "stateMutability": "view",
      "type": "function",
      "constant": true
    },
    {
      "inputs": [],
      "name": "getBalance",
      "outputs": [
        {
          "internalType": "uint256",
          "name": "",
          "type": "uint256"
        }
      ],
      "stateMutability": "view",
      "type": "function",
      "constant": true
    },
    {
      "inputs": [
        {
          "internalType": "uint256",
          "name": "adId",
          "type": "uint256"
        }
      ],
      "name": "getJoinedInfluencers",
      "outputs": [
        {
          "internalType": "uint256[]",
          "name": "",
          "type": "uint256[]"
        }
      ],
      "stateMutability": "view",
      "type": "function",
      "constant": true
    }
  ],
  "bytecode": "0x608060405234801561001057600080fd5b506000600481905550612991806100286000396000f3fe6080604052600436106100f35760003560e01c80633f3a84c21161008a578063cd5507e411610059578063cd5507e41461035c578063d0e30db014610385578063e40b22a41461038f578063ec63366b146103ce576100f3565b80633f3a84c21461027c5780634c81444c146102b95780637ede1c07146102f6578063910deb3d14610333576100f3565b80631c9f6b9d116100c65780631c9f6b9d146101bb5780632177a96f146101d75780632403d41a1461020057806335a93dbd1461023f576100f3565b806310e83975146100f857806311a7a4c01461012157806312065fe0146101655780631a8bb68d14610190575b600080fd5b34801561010457600080fd5b5061011f600480360381019061011a919061183a565b61040b565b005b34801561012d57600080fd5b506101486004803603810190610143919061188d565b6106e2565b60405161015c9897969594939291906118fd565b60405180910390f35b34801561017157600080fd5b5061017a610744565b604051610187919061197b565b60405180910390f35b34801561019c57600080fd5b506101a561074c565b6040516101b2919061197b565b60405180910390f35b6101d560048036038101906101d091906119c2565b610752565b005b3480156101e357600080fd5b506101fe60048036038101906101f99190611a3d565b6109d9565b005b34801561020c57600080fd5b5061022760048036038101906102229190611a7d565b610cdc565b60405161023693929190611abd565b60405180910390f35b34801561024b57600080fd5b5061026660048036038101906102619190611a7d565b610d20565b6040516102739190611af4565b60405180910390f35b34801561028857600080fd5b506102a3600480360381019061029e919061188d565b610d5c565b6040516102b09190611bcd565b60405180910390f35b3480156102c557600080fd5b506102e060048036038101906102db9190611a7d565b610dc7565b6040516102ed919061197b565b60405180910390f35b34801561030257600080fd5b5061031d6004803603810190610318919061188d565b610df8565b60405161032a9190611caf565b60405180910390f35b34801561033f57600080fd5b5061035a60048036038101906103559190611ee7565b610edb565b005b34801561036857600080fd5b50610383600480360381019061037e9190611a7d565b6112a6565b005b61038d611601565b005b34801561039b57600080fd5b506103b660048036038101906103b19190611a7d565b611694565b6040516103c593929190611abd565b60405180910390f35b3480156103da57600080fd5b506103f560048036038101906103f09190611a7d565b611717565b6040516104029190611af4565b60405180910390f35b600454831061044f576040517f08c379a000000000000000000000000000000000000000000000000000000000815260040161044690611fcf565b60405180910390fd5b60008211610492576040517f08c379a00000000000000000000000000000000000000000000000000000000081526004016104899061203b565b60405180910390fd5b600073ffffffffffffffffffffffffffffffffffffffff168173ffffffffffffffffffffffffffffffffffffffff1603610501576040517f08c379a00000000000000000000000000000000000000000000000000000000081526004016104f8906120a7565b60405180910390fd5b60008060008581526020019081526020016000209050600060016000868152602001908152602001600020600085815260200190815260200160002090506000816000015403610586576040517f08c379a000000000000000000000000000000000000000000000000000000000815260040161057d90612113565b60405180910390fd5b8060010160009054906101000a900460ff16156105d8576040517f08c379a00000000000000000000000000000000000000000000000000000000081526004016105cf9061217f565b60405180910390fd5b816001015447101561061f576040517f08c379a0000000000000000000000000000000000000000000000000000000008152600401610616906121eb565b60405180910390fd5b60018160010160006101000a81548160ff0219169083151502179055508273ffffffffffffffffffffffffffffffffffffffff166108fc83600101549081150290604051600060405180830381858888f19350505050158015610686573d6000803e3d6000fd5b508273ffffffffffffffffffffffffffffffffffffffff1684867f7ca8e8c8f1ad84620b8d2d058792ca1de1f7312a1d0302d36ffb8de18bc8111d85600101546040516106d3919061197b565b60405180910390a45050505050565b60006020528060005260406000206000915090508060000154908060010154908060020154908060030154908060040154908060050154908060060160009054906101000a900460ff16908060060160019054906101000a900460ff16905088565b600047905090565b60045481565b828461075e919061223a565b3410156107a0576040517f08c379a0000000000000000000000000000000000000000000000000000000008152600401610797906122ee565b60405180910390fd5b600084116107e3576040517f08c379a00000000000000000000000000000000000000000000000000000000081526004016107da9061235a565b60405180910390fd5b60008311610826576040517f08c379a000000000000000000000000000000000000000000000000000000000815260040161081d906123ec565b60405180910390fd5b428211610868576040517f08c379a000000000000000000000000000000000000000000000000000000000815260040161085f90612458565b60405180910390fd5b600085116108ab576040517f08c379a00000000000000000000000000000000000000000000000000000000081526004016108a2906124c4565b60405180910390fd5b60405180610100016040528086815260200185815260200184815260200183815260200182815260200160008152602001600015158152602001600015158152506000806004548152602001908152602001600020600082015181600001556020820151816001015560408201518160020155606082015181600301556080820151816004015560a0820151816005015560c08201518160060160006101000a81548160ff02191690831515021790555060e08201518160060160016101000a81548160ff021916908315150217905550905050846004547fa4409b46c2dc4d201abebbf36a6c1317a175af97e1196818d9ff5207f4d9c8e8866040516109b2919061197b565b60405180910390a3600460008154809291906109cd906124e4565b91905055505050505050565b6004548210610a1d576040517f08c379a0000000000000000000000000000000000000000000000000000000008152600401610a1490611fcf565b60405180910390fd5b600073ffffffffffffffffffffffffffffffffffffffff168173ffffffffffffffffffffffffffffffffffffffff1603610a8c576040517f08c379a0000000000000000000000000000000000000000000000000000000008152600401610a83906120a7565b60405180910390fd5b600080600084815260200190815260200160002090508060060160019054906101000a900460ff1615610af4576040517f08c379a0000000000000000000000000000000000000000000000000000000008152600401610aeb90612578565b60405180910390fd5b600081600201548260010154610b0a919061223a565b905060008060036000878152602001908152602001600020905060005b8180549050811015610bb2576000600160008981526020019081526020016000206000848481548110610b5d57610b5c612598565b5b9060005260206000200154815260200190815260200160002090508060010160009054906101000a900460ff1615610b9e578380610b9a906124e4565b9450505b508080610baa906124e4565b915050610b27565b506000828560010154610bc5919061223a565b905060008185610bd591906125c7565b905060008111610c1a576040517f08c379a0000000000000000000000000000000000000000000000000000000008152600401610c1190612647565b60405180910390fd5b60018660060160016101000a81548160ff0219169083151502179055508673ffffffffffffffffffffffffffffffffffffffff166108fc829081150290604051600060405180830381858888f19350505050158015610c7d573d6000803e3d6000fd5b508673ffffffffffffffffffffffffffffffffffffffff168660000154897f28b4e05e4486722f8d41adb156a21bee399eaccfdea5b69a24e49199dad5314484604051610cca919061197b565b60405180910390a45050505050505050565b6001602052816000526040600020602052806000526040600020600091509150508060000154908060010160009054906101000a900460ff16908060020154905083565b600060026000848152602001908152602001600020600083815260200190815260200160002060009054906101000a900460ff16905092915050565b606060036000838152602001908152602001600020805480602002602001604051908101604052809291908181526020018280548015610dbb57602002820191906000526020600020905b815481526020019060010190808311610da7575b50505050509050919050565b60036020528160005260406000208181548110610de357600080fd5b90600052602060002001600091509150505481565b610e00611746565b6004548210610e44576040517f08c379a0000000000000000000000000000000000000000000000000000000008152600401610e3b90611fcf565b60405180910390fd5b600080838152602001908152602001600020604051806101000160405290816000820154815260200160018201548152602001600282015481526020016003820154815260200160048201548152602001600582015481526020016006820160009054906101000a900460ff161515151581526020016006820160019054906101000a900460ff1615151515815250509050919050565b6004548310610f1f576040517f08c379a0000000000000000000000000000000000000000000000000000000008152600401610f1690611fcf565b60405180910390fd5b8051825114610f63576040517f08c379a0000000000000000000000000000000000000000000000000000000008152600401610f5a906126b3565b60405180910390fd5b6000825111610fa7576040517f08c379a0000000000000000000000000000000000000000000000000000000008152600401610f9e9061271f565b60405180910390fd5b6000806000858152602001908152602001600020905082518160010154610fce919061223a565b471015611010576040517f08c379a0000000000000000000000000000000000000000000000000000000008152600401611007906121eb565b60405180910390fd5b60005b835181101561129f57600084828151811061103157611030612598565b5b6020026020010151905060008483815181106110505761104f612598565b5b602002602001015190506000821161109d576040517f08c379a00000000000000000000000000000000000000000000000000000000081526004016110949061203b565b60405180910390fd5b600073ffffffffffffffffffffffffffffffffffffffff168173ffffffffffffffffffffffffffffffffffffffff160361110c576040517f08c379a0000000000000000000000000000000000000000000000000000000008152600401611103906120a7565b60405180910390fd5b60006001600089815260200190815260200160002060008481526020019081526020016000209050600081600001540361117b576040517f08c379a000000000000000000000000000000000000000000000000000000000815260040161117290612113565b60405180910390fd5b8060010160009054906101000a900460ff16156111cd576040517f08c379a00000000000000000000000000000000000000000000000000000000081526004016111c49061217f565b60405180910390fd5b60018160010160006101000a81548160ff0219169083151502179055508173ffffffffffffffffffffffffffffffffffffffff166108fc86600101549081150290604051600060405180830381858888f19350505050158015611234573d6000803e3d6000fd5b508173ffffffffffffffffffffffffffffffffffffffff1683897f7ca8e8c8f1ad84620b8d2d058792ca1de1f7312a1d0302d36ffb8de18bc8111d8860010154604051611281919061197b565b60405180910390a45050508080611297906124e4565b915050611013565b5050505050565b60045482106112ea576040517f08c379a00000000000000000000000000000000000000000000000000000000081526004016112e190611fcf565b60405180910390fd5b6000811161132d576040517f08c379a00000000000000000000000000000000000000000000000000000000081526004016113249061203b565b60405180910390fd5b600080600084815260200190815260200160002090508060060160009054906101000a900460ff1615611395576040517f08c379a000000000000000000000000000000000000000000000000000000000815260040161138c9061278b565b60405180910390fd5b80600201548160050154106113df576040517f08c379a00000000000000000000000000000000000000000000000000000000081526004016113d6906127f7565b60405180910390fd5b42816003015411611425576040517f08c379a000000000000000000000000000000000000000000000000000000000815260040161141c90612863565b60405180910390fd5b60026000848152602001908152602001600020600083815260200190815260200160002060009054906101000a900460ff1615611497576040517f08c379a000000000000000000000000000000000000000000000000000000000815260040161148e906128cf565b60405180910390fd5b6040518060600160405280838152602001600015158152602001428152506001600085815260200190815260200160002060008481526020019081526020016000206000820151816000015560208201518160010160006101000a81548160ff02191690831515021790555060408201518160020155905050600160026000858152602001908152602001600020600084815260200190815260200160002060006101000a81548160ff0219169083151502179055506003600084815260200190815260200160002082908060018154018082558091505060019003906000526020600020016000909190919091505580600501600081548092919061159c906124e4565b919050555080600201548160050154106115ce5760018160060160006101000a81548160ff0219169083151502179055505b81837f7b6b2a5eb0ae56acf56d7a5aff3827c4092c6c06b61324a5b706eb3273ac7b8660405160405180910390a3505050565b60003411611644576040517f08c379a000000000000000000000000000000000000000000000000000000000815260040161163b9061293b565b60405180910390fd5b3373ffffffffffffffffffffffffffffffffffffffff167f60bbf3f279de4eb569cec9565dbd645a7d269bef7d4b20083d8da32ddd6e94603460405161168a919061197b565b60405180910390a2565b600080600080600160008781526020019081526020016000206000868152602001908152602001600020604051806060016040529081600082015481526020016001820160009054906101000a900460ff161515151581526020016002820154815250509050806000015181602001518260400151935093509350509250925092565b60026020528160005260406000206020528060005260406000206000915091509054906101000a900460ff1681565b6040518061010001604052806000815260200160008152602001600081526020016000815260200160008019168152602001600081526020016000151581526020016000151581525090565b6000604051905090565b600080fd5b600080fd5b6000819050919050565b6117b9816117a6565b81146117c457600080fd5b50565b6000813590506117d6816117b0565b92915050565b600073ffffffffffffffffffffffffffffffffffffffff82169050919050565b6000611807826117dc565b9050919050565b611817816117fc565b811461182257600080fd5b50565b6000813590506118348161180e565b92915050565b6000806000606084860312156118535761185261179c565b5b6000611861868287016117c7565b9350506020611872868287016117c7565b925050604061188386828701611825565b9150509250925092565b6000602082840312156118a3576118a261179c565b5b60006118b1848285016117c7565b91505092915050565b6118c3816117a6565b82525050565b6000819050919050565b6118dc816118c9565b82525050565b60008115159050919050565b6118f7816118e2565b82525050565b600061010082019050611913600083018b6118ba565b611920602083018a6118ba565b61192d60408301896118ba565b61193a60608301886118ba565b61194760808301876118d3565b61195460a08301866118ba565b61196160c08301856118ee565b61196e60e08301846118ee565b9998505050505050505050565b600060208201905061199060008301846118ba565b92915050565b61199f816118c9565b81146119aa57600080fd5b50565b6000813590506119bc81611996565b92915050565b600080600080600060a086880312156119de576119dd61179c565b5b60006119ec888289016117c7565b95505060206119fd888289016117c7565b9450506040611a0e888289016117c7565b9350506060611a1f888289016117c7565b9250506080611a30888289016119ad565b9150509295509295909350565b60008060408385031215611a5457611a5361179c565b5b6000611a62858286016117c7565b9250506020611a7385828601611825565b9150509250929050565b60008060408385031215611a9457611a9361179c565b5b6000611aa2858286016117c7565b9250506020611ab3858286016117c7565b9150509250929050565b6000606082019050611ad260008301866118ba565b611adf60208301856118ee565b611aec60408301846118ba565b949350505050565b6000602082019050611b0960008301846118ee565b92915050565b600081519050919050565b600082825260208201905092915050565b6000819050602082019050919050565b611b44816117a6565b82525050565b6000611b568383611b3b565b60208301905092915050565b6000602082019050919050565b6000611b7a82611b0f565b611b848185611b1a565b9350611b8f83611b2b565b8060005b83811015611bc0578151611ba78882611b4a565b9750611bb283611b62565b925050600181019050611b93565b5085935050505092915050565b60006020820190508181036000830152611be78184611b6f565b905092915050565b611bf8816118c9565b82525050565b611c07816118e2565b82525050565b61010082016000820151611c246000850182611b3b565b506020820151611c376020850182611b3b565b506040820151611c4a6040850182611b3b565b506060820151611c5d6060850182611b3b565b506080820151611c706080850182611bef565b5060a0820151611c8360a0850182611b3b565b5060c0820151611c9660c0850182611bfe565b5060e0820151611ca960e0850182611bfe565b50505050565b600061010082019050611cc56000830184611c0d565b92915050565b600080fd5b6000601f19601f8301169050919050565b7f4e487b7100000000000000000000000000000000000000000000000000000000600052604160045260246000fd5b611d1982611cd0565b810181811067ffffffffffffffff82111715611d3857611d37611ce1565b5b80604052505050565b6000611d4b611792565b9050611d578282611d10565b919050565b600067ffffffffffffffff821115611d7757611d76611ce1565b5b602082029050602081019050919050565b600080fd5b6000611da0611d9b84611d5c565b611d41565b90508083825260208201905060208402830185811115611dc357611dc2611d88565b5b835b81811015611dec5780611dd888826117c7565b845260208401935050602081019050611dc5565b5050509392505050565b600082601f830112611e0b57611e0a611ccb565b5b8135611e1b848260208601611d8d565b91505092915050565b600067ffffffffffffffff821115611e3f57611e3e611ce1565b5b602082029050602081019050919050565b6000611e63611e5e84611e24565b611d41565b90508083825260208201905060208402830185811115611e8657611e85611d88565b5b835b81811015611eaf5780611e9b8882611825565b845260208401935050602081019050611e88565b5050509392505050565b600082601f830112611ece57611ecd611ccb565b5b8135611ede848260208601611e50565b91505092915050565b600080600060608486031215611f0057611eff61179c565b5b6000611f0e868287016117c7565b935050602084013567ffffffffffffffff811115611f2f57611f2e6117a1565b5b611f3b86828701611df6565b925050604084013567ffffffffffffffff811115611f5c57611f5b6117a1565b5b611f6886828701611eb9565b9150509250925092565b600082825260208201905092915050565b7f496e76616c696420616449640000000000000000000000000000000000000000600082015250565b6000611fb9600c83611f72565b9150611fc482611f83565b602082019050919050565b60006020820190508181036000830152611fe881611fac565b9050919050565b7f496e76616c696420696e666c75656e6365722049440000000000000000000000600082015250565b6000612025601583611f72565b915061203082611fef565b602082019050919050565b6000602082019050818103600083015261205481612018565b9050919050565b7f496e76616c69642077616c6c6574206164647265737300000000000000000000600082015250565b6000612091601683611f72565b915061209c8261205b565b602082019050919050565b600060208201905081810360008301526120c081612084565b9050919050565b7f496e666c75656e636572206e6f74206a6f696e65640000000000000000000000600082015250565b60006120fd601583611f72565b9150612108826120c7565b602082019050919050565b6000602082019050818103600083015261212c816120f0565b9050919050565b7f416c726561647920706169640000000000000000000000000000000000000000600082015250565b6000612169600c83611f72565b915061217482612133565b602082019050919050565b600060208201905081810360008301526121988161215c565b9050919050565b7f496e73756666696369656e742062616c616e6365000000000000000000000000600082015250565b60006121d5601483611f72565b91506121e08261219f565b602082019050919050565b60006020820190508181036000830152612204816121c8565b9050919050565b7f4e487b7100000000000000000000000000000000000000000000000000000000600052601160045260246000fd5b6000612245826117a6565b9150612250836117a6565b925082820261225e816117a6565b915082820484148315176122755761227461220b565b5b5092915050565b7f496e73756666696369656e74207061796d656e7420666f7220616c6c2072657760008201527f6172647300000000000000000000000000000000000000000000000000000000602082015250565b60006122d8602483611f72565b91506122e38261227c565b604082019050919050565b60006020820190508181036000830152612307816122cb565b9050919050565b7f526577617264206d7573742062652067726561746572207468616e2030000000600082015250565b6000612344601d83611f72565b915061234f8261230e565b602082019050919050565b6000602082019050818103600083015261237381612337565b9050919050565b7f4d617820696e666c75656e636572206d7573742062652067726561746572207460008201527f68616e2030000000000000000000000000000000000000000000000000000000602082015250565b60006123d6602583611f72565b91506123e18261237a565b604082019050919050565b60006020820190508181036000830152612405816123c9565b9050919050565b7f446561646c696e65206d75737420626520696e20746865206675747572650000600082015250565b6000612442601e83611f72565b915061244d8261240c565b602082019050919050565b6000602082019050818103600083015261247181612435565b9050919050565b7f496e76616c696420616476657274697365722049440000000000000000000000600082015250565b60006124ae601583611f72565b91506124b982612478565b602082019050919050565b600060208201905081810360008301526124dd816124a1565b9050919050565b60006124ef826117a6565b91507fffffffffffffffffffffffffffffffffffffffffffffffffffffffffffffffff82036125215761252061220b565b5b600182019050919050565b7f416c726561647920726566756e64656400000000000000000000000000000000600082015250565b6000612562601083611f72565b915061256d8261252c565b602082019050919050565b6000602082019050818103600083015261259181612555565b9050919050565b7f4e487b7100000000000000000000000000000000000000000000000000000000600052603260045260246000fd5b60006125d2826117a6565b91506125dd836117a6565b92508282039050818111156125f5576125f461220b565b5b92915050565b7f4e6f2066756e647320746f20726566756e640000000000000000000000000000600082015250565b6000612631601283611f72565b915061263c826125fb565b602082019050919050565b6000602082019050818103600083015261266081612624565b9050919050565b7f417272617973206c656e677468206d69736d6174636800000000000000000000600082015250565b600061269d601683611f72565b91506126a882612667565b602082019050919050565b600060208201905081810360008301526126cc81612690565b9050919050565b7f456d707479206172726179730000000000000000000000000000000000000000600082015250565b6000612709600c83611f72565b9150612714826126d3565b602082019050919050565b60006020820190508181036000830152612738816126fc565b9050919050565b7f416420697320636c6f7365640000000000000000000000000000000000000000600082015250565b6000612775600c83611f72565b91506127808261273f565b602082019050919050565b600060208201905081810360008301526127a481612768565b9050919050565b7f4d617820696e666c75656e636572732072656163686564000000000000000000600082015250565b60006127e1601783611f72565b91506127ec826127ab565b602082019050919050565b60006020820190508181036000830152612810816127d4565b9050919050565b7f446561646c696e65207061737365640000000000000000000000000000000000600082015250565b600061284d600f83611f72565b915061285882612817565b602082019050919050565b6000602082019050818103600083015261287c81612840565b9050919050565b7f416c7265616479206a6f696e6564000000000000000000000000000000000000600082015250565b60006128b9600e83611f72565b91506128c482612883565b602082019050919050565b600060208201905081810360008301526128e8816128ac565b9050919050565b7f416d6f756e74206d7573742062652067726561746572207468616e2030000000600082015250565b6000612925601d83611f72565b9150612930826128ef565b602082019050919050565b6000602082019050818103600083015261295481612918565b905091905056fea26469706673582212206d702d11002f27f2d7cf7ef95793833510035f6e8a9c11ecf1c8cf3f49e8519364736f6c63430008130033",
  "immutableReferences": {},
  "source": "// SPDX-License-Identifier: MIT\r\npragma solidity ^0.8.19;\r\n\r\ncontract AdContract {\r\n    struct Ad {\r\n        uint256 advertiserId;   //  ID (JWT userId  )\r\n        uint256 reward;         // \r\n        uint256 maxInfluencer;  //   \r\n        uint256 deadline;       //    timestamp\r\n        bytes32 metadataHash;   //     \r\n        uint256 acceptedCount;  //  \r\n        bool isClosed;\r\n        bool isRefunded;        //   \r\n    }\r\n\r\n    struct Influencer {\r\n        uint256 influencerId;   //  ID (JWT userId  )\r\n        bool paid;\r\n        uint256 joinTime;\r\n    }\r\n\r\n    mapping(uint256 => Ad) public ads;\r\n    mapping(uint256 => mapping(uint256 => Influencer)) public adInfluencerMap; // adId => influencerId => Influencer\r\n    mapping(uint256 => mapping(uint256 => bool)) public hasJoinedAd; //   : adId => influencerId => bool\r\n    mapping(uint256 => uint256[]) public adJoinedInfluencers; // adId =>  ID \r\n\r\n    uint256 public nextAdId;\r\n\r\n    //  \r\n    event AdCreated(uint256 indexed adId, uint256 indexed advertiserId, uint256 reward);\r\n    event DepositSuccess(address indexed user, uint256 amount);\r\n    event JoinedAd(uint256 indexed adId, uint256 indexed influencerId);\r\n    event PaidInfluencer(uint256 indexed adId, uint256 indexed influencerId, address indexed walletAddress, uint256 reward);\r\n    event RefundedAdvertiser(uint256 indexed adId, uint256 indexed advertiserId, address indexed walletAddress, uint256 amount);\r\n\r\n    constructor() {\r\n        nextAdId = 0;\r\n    }\r\n\r\n    // () \r\n    function deposit() public payable {\r\n        require(msg.value > 0, \"Amount must be greater than 0\");\r\n        emit DepositSuccess(msg.sender, msg.value);\r\n    }\r\n\r\n    //   \r\n    function addContract(\r\n        uint256 advertiserId,\r\n        uint256 reward,\r\n        uint256 maxInfluencer,\r\n        uint256 deadline,\r\n        bytes32 metadataHash\r\n    ) public payable {\r\n        require(msg.value >= reward * maxInfluencer, \"Insufficient payment for all rewards\");\r\n        require(reward > 0, \"Reward must be greater than 0\");\r\n        require(maxInfluencer > 0, \"Max influencer must be greater than 0\");\r\n        require(deadline > block.timestamp, \"Deadline must be in the future\");\r\n        require(advertiserId > 0, \"Invalid advertiser ID\");\r\n\r\n        ads[nextAdId] = Ad({\r\n            advertiserId: advertiserId,\r\n            reward: reward,\r\n            maxInfluencer: maxInfluencer,\r\n            deadline: deadline,\r\n            metadataHash: metadataHash,\r\n            acceptedCount: 0,\r\n            isClosed: false,\r\n            isRefunded: false\r\n        });\r\n\r\n        emit AdCreated(nextAdId, advertiserId, reward);\r\n        nextAdId++;\r\n    }\r\n\r\n    //    \r\n    function joinAd(uint256 adId, uint256 influencerId) public {\r\n        require(adId < nextAdId, \"Invalid adId\");\r\n        require(influencerId > 0, \"Invalid influencer ID\");\r\n\r\n        Ad storage ad = ads[adId];\r\n\r\n        require(!ad.isClosed, \"Ad is closed\");\r\n        require(ad.acceptedCount < ad.maxInfluencer, \"Max influencers reached\");\r\n        require(ad.deadline > block.timestamp, \"Deadline passed\");\r\n        require(!hasJoinedAd[adId][influencerId], \"Already joined\");\r\n\r\n        adInfluencerMap[adId][influencerId] = Influencer({\r\n            influencerId: influencerId,\r\n            paid: false,\r\n            joinTime: block.timestamp\r\n        });\r\n\r\n        hasJoinedAd[adId][influencerId] = true;\r\n\r\n        //    \r\n        adJoinedInfluencers[adId].push(influencerId);\r\n\r\n        ad.acceptedCount++;\r\n\r\n        if (ad.acceptedCount >= ad.maxInfluencer) {\r\n            ad.isClosed = true;\r\n        }\r\n\r\n        emit JoinedAd(adId, influencerId);\r\n    }\r\n\r\n    //    \r\n    function payInfluencer(uint256 adId, uint256 influencerId, address walletAddress) public {\r\n        require(adId < nextAdId, \"Invalid adId\");\r\n        require(influencerId > 0, \"Invalid influencer ID\");\r\n        require(walletAddress != address(0), \"Invalid wallet address\");\r\n\r\n        Ad storage ad = ads[adId];\r\n        Influencer storage inf = adInfluencerMap[adId][influencerId];\r\n\r\n        require(inf.influencerId != 0, \"Influencer not joined\");\r\n        require(!inf.paid, \"Already paid\");\r\n        require(address(this).balance >= ad.reward, \"Insufficient balance\");\r\n\r\n        inf.paid = true;\r\n        payable(walletAddress).transfer(ad.reward);\r\n\r\n        emit PaidInfluencer(adId, influencerId, walletAddress, ad.reward);\r\n    }\r\n\r\n    //     \r\n    function payMultipleInfluencers(\r\n        uint256 adId,\r\n        uint256[] memory influencerIds,\r\n        address[] memory walletAddresses\r\n    ) public {\r\n        require(adId < nextAdId, \"Invalid adId\");\r\n        require(influencerIds.length == walletAddresses.length, \"Arrays length mismatch\");\r\n        require(influencerIds.length > 0, \"Empty arrays\");\r\n\r\n        Ad storage ad = ads[adId];\r\n        require(address(this).balance >= ad.reward * influencerIds.length, \"Insufficient balance\");\r\n\r\n        for (uint256 i = 0; i < influencerIds.length; i++) {\r\n            uint256 influencerId = influencerIds[i];\r\n            address walletAddress = walletAddresses[i];\r\n\r\n            require(influencerId > 0, \"Invalid influencer ID\");\r\n            require(walletAddress != address(0), \"Invalid wallet address\");\r\n\r\n            Influencer storage inf = adInfluencerMap[adId][influencerId];\r\n            require(inf.influencerId != 0, \"Influencer not joined\");\r\n            require(!inf.paid, \"Already paid\");\r\n\r\n            inf.paid = true;\r\n            payable(walletAddress).transfer(ad.reward);\r\n\r\n            emit PaidInfluencer(adId, influencerId, walletAddress, ad.reward);\r\n        }\r\n    }\r\n\r\n    //    (  )\r\n    function refundAdvertiser(uint256 adId, address advertiserWalletAddress) public {\r\n        require(adId < nextAdId, \"Invalid adId\");\r\n        require(advertiserWalletAddress != address(0), \"Invalid wallet address\");\r\n\r\n        Ad storage ad = ads[adId];\r\n\r\n        // require(block.timestamp > ad.deadline, \"Deadline not passed yet\");\r\n        require(!ad.isRefunded, \"Already refunded\");\r\n\r\n        uint256 totalDeposit = ad.reward * ad.maxInfluencer;\r\n\r\n        //      ( )\r\n        uint256 paidCount = 0;\r\n        uint256[] storage joined = adJoinedInfluencers[adId];\r\n\r\n        for (uint256 i = 0; i < joined.length; i++) {\r\n            Influencer storage inf = adInfluencerMap[adId][joined[i]];\r\n            if (inf.paid) {\r\n                paidCount++;\r\n            }\r\n        }\r\n\r\n        uint256 paidAmount = ad.reward * paidCount;\r\n        uint256 refundAmount = totalDeposit - paidAmount;\r\n        require(refundAmount > 0, \"No funds to refund\");\r\n\r\n        ad.isRefunded = true;\r\n\r\n        payable(advertiserWalletAddress).transfer(refundAmount);\r\n\r\n        emit RefundedAdvertiser(adId, ad.advertiserId, advertiserWalletAddress, refundAmount);\r\n    }\r\n\r\n    //    \r\n    function getInfluencerInfo(uint256 adId, uint256 influencerId) public view returns (uint256, bool, uint256) {\r\n        Influencer memory inf = adInfluencerMap[adId][influencerId];\r\n        return (inf.influencerId, inf.paid, inf.joinTime);\r\n    }\r\n\r\n    //   \r\n    function getAd(uint256 adId) public view returns (Ad memory) {\r\n        require(adId < nextAdId, \"Invalid adId\");\r\n        return ads[adId];\r\n    }\r\n\r\n    //      \r\n    function checkJoinStatus(uint256 adId, uint256 influencerId) public view returns (bool) {\r\n        return hasJoinedAd[adId][influencerId];\r\n    }\r\n\r\n    //   \r\n    function getBalance() public view returns (uint256) {\r\n        return address(this).balance;\r\n    }\r\n\r\n    //       \r\n    function getJoinedInfluencers(uint256 adId) public view returns (uint256[] memory) {\r\n        return adJoinedInfluencers[adId];\r\n    }\r\n}",
  "sourcePath": "C:\\Users\\renne\\Desktop\\Project\\GreenSalaryBlockchain\\BlockChain\\contracts\\AdContract.sol",
  "compiler": {
    "name": "solc",
    "version": "0.8.19+commit.7dd6d404.Emscripten.clang"
  },
  "schemaVersion": "3.4.16",
  "updatedAt": "2025-06-10T16:23:58.522Z",
  "networkType": "ethereum",
  "devdoc": {
    "kind": "dev",
    "methods": {},
    "version": 1
  },
  "userdoc": {
    "kind": "user",
    "methods": {},
    "version": 1
  }
}