{
  "contractName": "AdContract",
  "abi": [
    {
      "inputs": [],
      "stateMutability": "nonpayable",
      "type": "constructor"
    },
    {
      "anonymous": false,
      "inputs": [
        {
          "indexed": true,
          "internalType": "uint256",
          "name": "adId",
          "type": "uint256"
        },
        {
          "indexed": true,
          "internalType": "uint256",
          "name": "advertiserId",
          "type": "uint256"
        },
        {
          "indexed": false,
          "internalType": "uint256",
          "name": "reward",
          "type": "uint256"
        }
      ],
      "name": "AdCreated",
      "type": "event"
    },
    {
      "anonymous": false,
      "inputs": [
        {
          "indexed": true,
          "internalType": "address",
          "name": "user",
          "type": "address"
        },
        {
          "indexed": false,
          "internalType": "uint256",
          "name": "amount",
          "type": "uint256"
        }
      ],
      "name": "DepositSuccess",
      "type": "event"
    },
    {
      "anonymous": false,
      "inputs": [
        {
          "indexed": true,
          "internalType": "uint256",
          "name": "adId",
          "type": "uint256"
        },
        {
          "indexed": true,
          "internalType": "uint256",
          "name": "influencerId",
          "type": "uint256"
        }
      ],
      "name": "JoinedAd",
      "type": "event"
    },
    {
      "anonymous": false,
      "inputs": [
        {
          "indexed": true,
          "internalType": "uint256",
          "name": "adId",
          "type": "uint256"
        },
        {
          "indexed": true,
          "internalType": "uint256",
          "name": "influencerId",
          "type": "uint256"
        },
        {
          "indexed": true,
          "internalType": "address",
          "name": "walletAddress",
          "type": "address"
        },
        {
          "indexed": false,
          "internalType": "uint256",
          "name": "reward",
          "type": "uint256"
        }
      ],
      "name": "PaidInfluencer",
      "type": "event"
    },
    {
      "anonymous": false,
      "inputs": [
        {
          "indexed": true,
          "internalType": "uint256",
          "name": "adId",
          "type": "uint256"
        },
        {
          "indexed": true,
          "internalType": "uint256",
          "name": "advertiserId",
          "type": "uint256"
        },
        {
          "indexed": true,
          "internalType": "address",
          "name": "walletAddress",
          "type": "address"
        },
        {
          "indexed": false,
          "internalType": "uint256",
          "name": "amount",
          "type": "uint256"
        }
      ],
      "name": "RefundedAdvertiser",
      "type": "event"
    },
    {
      "inputs": [
        {
          "internalType": "uint256",
          "name": "",
          "type": "uint256"
        },
        {
          "internalType": "uint256",
          "name": "",
          "type": "uint256"
        }
      ],
      "name": "adInfluencerMap",
      "outputs": [
        {
          "internalType": "uint256",
          "name": "influencerId",
          "type": "uint256"
        },
        {
          "internalType": "bool",
          "name": "paid",
          "type": "bool"
        },
        {
          "internalType": "uint256",
          "name": "joinTime",
          "type": "uint256"
        }
      ],
      "stateMutability": "view",
      "type": "function",
      "constant": true
    },
    {
      "inputs": [
        {
          "internalType": "uint256",
          "name": "",
          "type": "uint256"
        }
      ],
      "name": "ads",
      "outputs": [
        {
          "internalType": "uint256",
          "name": "advertiserId",
          "type": "uint256"
        },
        {
          "internalType": "uint256",
          "name": "reward",
          "type": "uint256"
        },
        {
          "internalType": "uint256",
          "name": "maxInfluencer",
          "type": "uint256"
        },
        {
          "internalType": "uint256",
          "name": "deadline",
          "type": "uint256"
        },
        {
          "internalType": "bytes32",
          "name": "metadataHash",
          "type": "bytes32"
        },
        {
          "internalType": "uint256",
          "name": "acceptedCount",
          "type": "uint256"
        },
        {
          "internalType": "bool",
          "name": "isClosed",
          "type": "bool"
        }
      ],
      "stateMutability": "view",
      "type": "function",
      "constant": true
    },
    {
      "inputs": [
        {
          "internalType": "uint256",
          "name": "",
          "type": "uint256"
        },
        {
          "internalType": "uint256",
          "name": "",
          "type": "uint256"
        }
      ],
      "name": "hasJoinedAd",
      "outputs": [
        {
          "internalType": "bool",
          "name": "",
          "type": "bool"
        }
      ],
      "stateMutability": "view",
      "type": "function",
      "constant": true
    },
    {
      "inputs": [],
      "name": "nextAdId",
      "outputs": [
        {
          "internalType": "uint256",
          "name": "",
          "type": "uint256"
        }
      ],
      "stateMutability": "view",
      "type": "function",
      "constant": true
    },
    {
      "inputs": [],
      "name": "deposit",
      "outputs": [],
      "stateMutability": "payable",
      "type": "function",
      "payable": true
    },
    {
      "inputs": [
        {
          "internalType": "uint256",
          "name": "advertiserId",
          "type": "uint256"
        },
        {
          "internalType": "uint256",
          "name": "reward",
          "type": "uint256"
        },
        {
          "internalType": "uint256",
          "name": "maxInfluencer",
          "type": "uint256"
        },
        {
          "internalType": "uint256",
          "name": "deadline",
          "type": "uint256"
        },
        {
          "internalType": "bytes32",
          "name": "metadataHash",
          "type": "bytes32"
        }
      ],
      "name": "addContract",
      "outputs": [],
      "stateMutability": "payable",
      "type": "function",
      "payable": true
    },
    {
      "inputs": [
        {
          "internalType": "uint256",
          "name": "adId",
          "type": "uint256"
        },
        {
          "internalType": "uint256",
          "name": "influencerId",
          "type": "uint256"
        }
      ],
      "name": "joinAd",
      "outputs": [],
      "stateMutability": "nonpayable",
      "type": "function"
    },
    {
      "inputs": [
        {
          "internalType": "uint256",
          "name": "adId",
          "type": "uint256"
        },
        {
          "internalType": "uint256",
          "name": "influencerId",
          "type": "uint256"
        },
        {
          "internalType": "address",
          "name": "walletAddress",
          "type": "address"
        }
      ],
      "name": "payInfluencer",
      "outputs": [],
      "stateMutability": "nonpayable",
      "type": "function"
    },
    {
      "inputs": [
        {
          "internalType": "uint256",
          "name": "adId",
          "type": "uint256"
        },
        {
          "internalType": "uint256[]",
          "name": "influencerIds",
          "type": "uint256[]"
        },
        {
          "internalType": "address[]",
          "name": "walletAddresses",
          "type": "address[]"
        }
      ],
      "name": "payMultipleInfluencers",
      "outputs": [],
      "stateMutability": "nonpayable",
      "type": "function"
    },
    {
      "inputs": [
        {
          "internalType": "uint256",
          "name": "adId",
          "type": "uint256"
        },
        {
          "internalType": "address",
          "name": "advertiserWalletAddress",
          "type": "address"
        }
      ],
      "name": "refundAdvertiser",
      "outputs": [],
      "stateMutability": "nonpayable",
      "type": "function"
    },
    {
      "inputs": [
        {
          "internalType": "uint256",
          "name": "adId",
          "type": "uint256"
        },
        {
          "internalType": "uint256",
          "name": "influencerId",
          "type": "uint256"
        }
      ],
      "name": "getInfluencerInfo",
      "outputs": [
        {
          "internalType": "uint256",
          "name": "",
          "type": "uint256"
        },
        {
          "internalType": "bool",
          "name": "",
          "type": "bool"
        },
        {
          "internalType": "uint256",
          "name": "",
          "type": "uint256"
        }
      ],
      "stateMutability": "view",
      "type": "function",
      "constant": true
    },
    {
      "inputs": [
        {
          "internalType": "uint256",
          "name": "adId",
          "type": "uint256"
        }
      ],
      "name": "getAd",
      "outputs": [
        {
          "components": [
            {
              "internalType": "uint256",
              "name": "advertiserId",
              "type": "uint256"
            },
            {
              "internalType": "uint256",
              "name": "reward",
              "type": "uint256"
            },
            {
              "internalType": "uint256",
              "name": "maxInfluencer",
              "type": "uint256"
            },
            {
              "internalType": "uint256",
              "name": "deadline",
              "type": "uint256"
            },
            {
              "internalType": "bytes32",
              "name": "metadataHash",
              "type": "bytes32"
            },
            {
              "internalType": "uint256",
              "name": "acceptedCount",
              "type": "uint256"
            },
            {
              "internalType": "bool",
              "name": "isClosed",
              "type": "bool"
            }
          ],
          "internalType": "struct AdContract.Ad",
          "name": "",
          "type": "tuple"
        }
      ],
      "stateMutability": "view",
      "type": "function",
      "constant": true
    },
    {
      "inputs": [
        {
          "internalType": "uint256",
          "name": "adId",
          "type": "uint256"
        },
        {
          "internalType": "uint256",
          "name": "influencerId",
          "type": "uint256"
        }
      ],
      "name": "checkJoinStatus",
      "outputs": [
        {
          "internalType": "bool",
          "name": "",
          "type": "bool"
        }
      ],
      "stateMutability": "view",
      "type": "function",
      "constant": true
    },
    {
      "inputs": [],
      "name": "getBalance",
      "outputs": [
        {
          "internalType": "uint256",
          "name": "",
          "type": "uint256"
        }
      ],
      "stateMutability": "view",
      "type": "function",
      "constant": true
    }
  ],
  "bytecode": "0x608060405234801561001057600080fd5b506000600381905550612593806100286000396000f3fe6080604052600436106100dd5760003560e01c806335a93dbd1161007f578063cd5507e411610059578063cd5507e4146102cb578063d0e30db0146102f4578063e40b22a4146102fe578063ec63366b1461033d576100dd565b806335a93dbd146102285780637ede1c0714610265578063910deb3d146102a2576100dd565b80631a8bb68d116100bb5780631a8bb68d146101795780631c9f6b9d146101a45780632177a96f146101c05780632403d41a146101e9576100dd565b806310e83975146100e257806311a7a4c01461010b57806312065fe01461014e575b600080fd5b3480156100ee57600080fd5b5061010960048036038101906101049190611565565b61037a565b005b34801561011757600080fd5b50610132600480360381019061012d91906115b8565b610651565b6040516101459796959493929190611628565b60405180910390f35b34801561015a57600080fd5b506101636106a0565b6040516101709190611697565b60405180910390f35b34801561018557600080fd5b5061018e6106a8565b60405161019b9190611697565b60405180910390f35b6101be60048036038101906101b991906116de565b6106ae565b005b3480156101cc57600080fd5b506101e760048036038101906101e29190611759565b61090b565b005b3480156101f557600080fd5b50610210600480360381019061020b9190611799565b610b03565b60405161021f939291906117d9565b60405180910390f35b34801561023457600080fd5b5061024f600480360381019061024a9190611799565b610b47565b60405161025c9190611810565b60405180910390f35b34801561027157600080fd5b5061028c600480360381019061028791906115b8565b610b83565b60405161029991906118e6565b60405180910390f35b3480156102ae57600080fd5b506102c960048036038101906102c49190611b1d565b610c4a565b005b3480156102d757600080fd5b506102f260048036038101906102ed9190611799565b611015565b005b6102fc611336565b005b34801561030a57600080fd5b5061032560048036038101906103209190611799565b6113c9565b604051610334939291906117d9565b60405180910390f35b34801561034957600080fd5b50610364600480360381019061035f9190611799565b61144c565b6040516103719190611810565b60405180910390f35b60035483106103be576040517f08c379a00000000000000000000000000000000000000000000000000000000081526004016103b590611c05565b60405180910390fd5b60008211610401576040517f08c379a00000000000000000000000000000000000000000000000000000000081526004016103f890611c71565b60405180910390fd5b600073ffffffffffffffffffffffffffffffffffffffff168173ffffffffffffffffffffffffffffffffffffffff1603610470576040517f08c379a000000000000000000000000000000000000000000000000000000000815260040161046790611cdd565b60405180910390fd5b600080600085815260200190815260200160002090506000600160008681526020019081526020016000206000858152602001908152602001600020905060008160000154036104f5576040517f08c379a00000000000000000000000000000000000000000000000000000000081526004016104ec90611d49565b60405180910390fd5b8060010160009054906101000a900460ff1615610547576040517f08c379a000000000000000000000000000000000000000000000000000000000815260040161053e90611db5565b60405180910390fd5b816001015447101561058e576040517f08c379a000000000000000000000000000000000000000000000000000000000815260040161058590611e21565b60405180910390fd5b60018160010160006101000a81548160ff0219169083151502179055508273ffffffffffffffffffffffffffffffffffffffff166108fc83600101549081150290604051600060405180830381858888f193505050501580156105f5573d6000803e3d6000fd5b508273ffffffffffffffffffffffffffffffffffffffff1684867f7ca8e8c8f1ad84620b8d2d058792ca1de1f7312a1d0302d36ffb8de18bc8111d85600101546040516106429190611697565b60405180910390a45050505050565b60006020528060005260406000206000915090508060000154908060010154908060020154908060030154908060040154908060050154908060060160009054906101000a900460ff16905087565b600047905090565b60035481565b82846106ba9190611e70565b3410156106fc576040517f08c379a00000000000000000000000000000000000000000000000000000000081526004016106f390611f24565b60405180910390fd5b6000841161073f576040517f08c379a000000000000000000000000000000000000000000000000000000000815260040161073690611f90565b60405180910390fd5b60008311610782576040517f08c379a000000000000000000000000000000000000000000000000000000000815260040161077990612022565b60405180910390fd5b4282116107c4576040517f08c379a00000000000000000000000000000000000000000000000000000000081526004016107bb9061208e565b60405180910390fd5b60008511610807576040517f08c379a00000000000000000000000000000000000000000000000000000000081526004016107fe906120fa565b60405180910390fd5b6040518060e0016040528086815260200185815260200184815260200183815260200182815260200160008152602001600015158152506000806003548152602001908152602001600020600082015181600001556020820151816001015560408201518160020155606082015181600301556080820151816004015560a0820151816005015560c08201518160060160006101000a81548160ff021916908315150217905550905050846003547fa4409b46c2dc4d201abebbf36a6c1317a175af97e1196818d9ff5207f4d9c8e8866040516108e49190611697565b60405180910390a3600360008154809291906108ff9061211a565b91905055505050505050565b600354821061094f576040517f08c379a000000000000000000000000000000000000000000000000000000000815260040161094690611c05565b60405180910390fd5b600073ffffffffffffffffffffffffffffffffffffffff168173ffffffffffffffffffffffffffffffffffffffff16036109be576040517f08c379a00000000000000000000000000000000000000000000000000000000081526004016109b590611cdd565b60405180910390fd5b6000806000848152602001908152602001600020905080600301544211610a1a576040517f08c379a0000000000000000000000000000000000000000000000000000000008152600401610a11906121ae565b60405180910390fd5b600047905060008111610a62576040517f08c379a0000000000000000000000000000000000000000000000000000000008152600401610a599061221a565b60405180910390fd5b8273ffffffffffffffffffffffffffffffffffffffff166108fc829081150290604051600060405180830381858888f19350505050158015610aa8573d6000803e3d6000fd5b508273ffffffffffffffffffffffffffffffffffffffff168260000154857f28b4e05e4486722f8d41adb156a21bee399eaccfdea5b69a24e49199dad5314484604051610af59190611697565b60405180910390a450505050565b6001602052816000526040600020602052806000526040600020600091509150508060000154908060010160009054906101000a900460ff16908060020154905083565b600060026000848152602001908152602001600020600083815260200190815260200160002060009054906101000a900460ff16905092915050565b610b8b61147b565b6003548210610bcf576040517f08c379a0000000000000000000000000000000000000000000000000000000008152600401610bc690611c05565b60405180910390fd5b6000808381526020019081526020016000206040518060e00160405290816000820154815260200160018201548152602001600282015481526020016003820154815260200160048201548152602001600582015481526020016006820160009054906101000a900460ff1615151515815250509050919050565b6003548310610c8e576040517f08c379a0000000000000000000000000000000000000000000000000000000008152600401610c8590611c05565b60405180910390fd5b8051825114610cd2576040517f08c379a0000000000000000000000000000000000000000000000000000000008152600401610cc990612286565b60405180910390fd5b6000825111610d16576040517f08c379a0000000000000000000000000000000000000000000000000000000008152600401610d0d906122f2565b60405180910390fd5b6000806000858152602001908152602001600020905082518160010154610d3d9190611e70565b471015610d7f576040517f08c379a0000000000000000000000000000000000000000000000000000000008152600401610d7690611e21565b60405180910390fd5b60005b835181101561100e576000848281518110610da057610d9f612312565b5b602002602001015190506000848381518110610dbf57610dbe612312565b5b6020026020010151905060008211610e0c576040517f08c379a0000000000000000000000000000000000000000000000000000000008152600401610e0390611c71565b60405180910390fd5b600073ffffffffffffffffffffffffffffffffffffffff168173ffffffffffffffffffffffffffffffffffffffff1603610e7b576040517f08c379a0000000000000000000000000000000000000000000000000000000008152600401610e7290611cdd565b60405180910390fd5b600060016000898152602001908152602001600020600084815260200190815260200160002090506000816000015403610eea576040517f08c379a0000000000000000000000000000000000000000000000000000000008152600401610ee190611d49565b60405180910390fd5b8060010160009054906101000a900460ff1615610f3c576040517f08c379a0000000000000000000000000000000000000000000000000000000008152600401610f3390611db5565b60405180910390fd5b60018160010160006101000a81548160ff0219169083151502179055508173ffffffffffffffffffffffffffffffffffffffff166108fc86600101549081150290604051600060405180830381858888f19350505050158015610fa3573d6000803e3d6000fd5b508173ffffffffffffffffffffffffffffffffffffffff1683897f7ca8e8c8f1ad84620b8d2d058792ca1de1f7312a1d0302d36ffb8de18bc8111d8860010154604051610ff09190611697565b60405180910390a450505080806110069061211a565b915050610d82565b5050505050565b6003548210611059576040517f08c379a000000000000000000000000000000000000000000000000000000000815260040161105090611c05565b60405180910390fd5b6000811161109c576040517f08c379a000000000000000000000000000000000000000000000000000000000815260040161109390611c71565b60405180910390fd5b600080600084815260200190815260200160002090508060060160009054906101000a900460ff1615611104576040517f08c379a00000000000000000000000000000000000000000000000000000000081526004016110fb9061238d565b60405180910390fd5b806002015481600501541061114e576040517f08c379a0000000000000000000000000000000000000000000000000000000008152600401611145906123f9565b60405180910390fd5b42816003015411611194576040517f08c379a000000000000000000000000000000000000000000000000000000000815260040161118b90612465565b60405180910390fd5b60026000848152602001908152602001600020600083815260200190815260200160002060009054906101000a900460ff1615611206576040517f08c379a00000000000000000000000000000000000000000000000000000000081526004016111fd906124d1565b60405180910390fd5b6040518060600160405280838152602001600015158152602001428152506001600085815260200190815260200160002060008481526020019081526020016000206000820151816000015560208201518160010160006101000a81548160ff02191690831515021790555060408201518160020155905050600160026000858152602001908152602001600020600084815260200190815260200160002060006101000a81548160ff0219169083151502179055508060050160008154809291906112d19061211a565b919050555080600201548160050154106113035760018160060160006101000a81548160ff0219169083151502179055505b81837f7b6b2a5eb0ae56acf56d7a5aff3827c4092c6c06b61324a5b706eb3273ac7b8660405160405180910390a3505050565b60003411611379576040517f08c379a00000000000000000000000000000000000000000000000000000000081526004016113709061253d565b60405180910390fd5b3373ffffffffffffffffffffffffffffffffffffffff167f60bbf3f279de4eb569cec9565dbd645a7d269bef7d4b20083d8da32ddd6e9460346040516113bf9190611697565b60405180910390a2565b600080600080600160008781526020019081526020016000206000868152602001908152602001600020604051806060016040529081600082015481526020016001820160009054906101000a900460ff161515151581526020016002820154815250509050806000015181602001518260400151935093509350509250925092565b60026020528160005260406000206020528060005260406000206000915091509054906101000a900460ff1681565b6040518060e001604052806000815260200160008152602001600081526020016000815260200160008019168152602001600081526020016000151581525090565b6000604051905090565b600080fd5b600080fd5b6000819050919050565b6114e4816114d1565b81146114ef57600080fd5b50565b600081359050611501816114db565b92915050565b600073ffffffffffffffffffffffffffffffffffffffff82169050919050565b600061153282611507565b9050919050565b61154281611527565b811461154d57600080fd5b50565b60008135905061155f81611539565b92915050565b60008060006060848603121561157e5761157d6114c7565b5b600061158c868287016114f2565b935050602061159d868287016114f2565b92505060406115ae86828701611550565b9150509250925092565b6000602082840312156115ce576115cd6114c7565b5b60006115dc848285016114f2565b91505092915050565b6115ee816114d1565b82525050565b6000819050919050565b611607816115f4565b82525050565b60008115159050919050565b6116228161160d565b82525050565b600060e08201905061163d600083018a6115e5565b61164a60208301896115e5565b61165760408301886115e5565b61166460608301876115e5565b61167160808301866115fe565b61167e60a08301856115e5565b61168b60c0830184611619565b98975050505050505050565b60006020820190506116ac60008301846115e5565b92915050565b6116bb816115f4565b81146116c657600080fd5b50565b6000813590506116d8816116b2565b92915050565b600080600080600060a086880312156116fa576116f96114c7565b5b6000611708888289016114f2565b9550506020611719888289016114f2565b945050604061172a888289016114f2565b935050606061173b888289016114f2565b925050608061174c888289016116c9565b9150509295509295909350565b600080604083850312156117705761176f6114c7565b5b600061177e858286016114f2565b925050602061178f85828601611550565b9150509250929050565b600080604083850312156117b0576117af6114c7565b5b60006117be858286016114f2565b92505060206117cf858286016114f2565b9150509250929050565b60006060820190506117ee60008301866115e5565b6117fb6020830185611619565b61180860408301846115e5565b949350505050565b60006020820190506118256000830184611619565b92915050565b611834816114d1565b82525050565b611843816115f4565b82525050565b6118528161160d565b82525050565b60e08201600082015161186e600085018261182b565b506020820151611881602085018261182b565b506040820151611894604085018261182b565b5060608201516118a7606085018261182b565b5060808201516118ba608085018261183a565b5060a08201516118cd60a085018261182b565b5060c08201516118e060c0850182611849565b50505050565b600060e0820190506118fb6000830184611858565b92915050565b600080fd5b6000601f19601f8301169050919050565b7f4e487b7100000000000000000000000000000000000000000000000000000000600052604160045260246000fd5b61194f82611906565b810181811067ffffffffffffffff8211171561196e5761196d611917565b5b80604052505050565b60006119816114bd565b905061198d8282611946565b919050565b600067ffffffffffffffff8211156119ad576119ac611917565b5b602082029050602081019050919050565b600080fd5b60006119d66119d184611992565b611977565b905080838252602082019050602084028301858111156119f9576119f86119be565b5b835b81811015611a225780611a0e88826114f2565b8452602084019350506020810190506119fb565b5050509392505050565b600082601f830112611a4157611a40611901565b5b8135611a518482602086016119c3565b91505092915050565b600067ffffffffffffffff821115611a7557611a74611917565b5b602082029050602081019050919050565b6000611a99611a9484611a5a565b611977565b90508083825260208201905060208402830185811115611abc57611abb6119be565b5b835b81811015611ae55780611ad18882611550565b845260208401935050602081019050611abe565b5050509392505050565b600082601f830112611b0457611b03611901565b5b8135611b14848260208601611a86565b91505092915050565b600080600060608486031215611b3657611b356114c7565b5b6000611b44868287016114f2565b935050602084013567ffffffffffffffff811115611b6557611b646114cc565b5b611b7186828701611a2c565b925050604084013567ffffffffffffffff811115611b9257611b916114cc565b5b611b9e86828701611aef565b9150509250925092565b600082825260208201905092915050565b7f496e76616c696420616449640000000000000000000000000000000000000000600082015250565b6000611bef600c83611ba8565b9150611bfa82611bb9565b602082019050919050565b60006020820190508181036000830152611c1e81611be2565b9050919050565b7f496e76616c696420696e666c75656e6365722049440000000000000000000000600082015250565b6000611c5b601583611ba8565b9150611c6682611c25565b602082019050919050565b60006020820190508181036000830152611c8a81611c4e565b9050919050565b7f496e76616c69642077616c6c6574206164647265737300000000000000000000600082015250565b6000611cc7601683611ba8565b9150611cd282611c91565b602082019050919050565b60006020820190508181036000830152611cf681611cba565b9050919050565b7f496e666c75656e636572206e6f74206a6f696e65640000000000000000000000600082015250565b6000611d33601583611ba8565b9150611d3e82611cfd565b602082019050919050565b60006020820190508181036000830152611d6281611d26565b9050919050565b7f416c726561647920706169640000000000000000000000000000000000000000600082015250565b6000611d9f600c83611ba8565b9150611daa82611d69565b602082019050919050565b60006020820190508181036000830152611dce81611d92565b9050919050565b7f496e73756666696369656e742062616c616e6365000000000000000000000000600082015250565b6000611e0b601483611ba8565b9150611e1682611dd5565b602082019050919050565b60006020820190508181036000830152611e3a81611dfe565b9050919050565b7f4e487b7100000000000000000000000000000000000000000000000000000000600052601160045260246000fd5b6000611e7b826114d1565b9150611e86836114d1565b9250828202611e94816114d1565b91508282048414831517611eab57611eaa611e41565b5b5092915050565b7f496e73756666696369656e74207061796d656e7420666f7220616c6c2072657760008201527f6172647300000000000000000000000000000000000000000000000000000000602082015250565b6000611f0e602483611ba8565b9150611f1982611eb2565b604082019050919050565b60006020820190508181036000830152611f3d81611f01565b9050919050565b7f526577617264206d7573742062652067726561746572207468616e2030000000600082015250565b6000611f7a601d83611ba8565b9150611f8582611f44565b602082019050919050565b60006020820190508181036000830152611fa981611f6d565b9050919050565b7f4d617820696e666c75656e636572206d7573742062652067726561746572207460008201527f68616e2030000000000000000000000000000000000000000000000000000000602082015250565b600061200c602583611ba8565b915061201782611fb0565b604082019050919050565b6000602082019050818103600083015261203b81611fff565b9050919050565b7f446561646c696e65206d75737420626520696e20746865206675747572650000600082015250565b6000612078601e83611ba8565b915061208382612042565b602082019050919050565b600060208201905081810360008301526120a78161206b565b9050919050565b7f496e76616c696420616476657274697365722049440000000000000000000000600082015250565b60006120e4601583611ba8565b91506120ef826120ae565b602082019050919050565b60006020820190508181036000830152612113816120d7565b9050919050565b6000612125826114d1565b91507fffffffffffffffffffffffffffffffffffffffffffffffffffffffffffffffff820361215757612156611e41565b5b600182019050919050565b7f446561646c696e65206e6f742070617373656420796574000000000000000000600082015250565b6000612198601783611ba8565b91506121a382612162565b602082019050919050565b600060208201905081810360008301526121c78161218b565b9050919050565b7f4e6f2066756e647320746f20726566756e640000000000000000000000000000600082015250565b6000612204601283611ba8565b915061220f826121ce565b602082019050919050565b60006020820190508181036000830152612233816121f7565b9050919050565b7f417272617973206c656e677468206d69736d6174636800000000000000000000600082015250565b6000612270601683611ba8565b915061227b8261223a565b602082019050919050565b6000602082019050818103600083015261229f81612263565b9050919050565b7f456d707479206172726179730000000000000000000000000000000000000000600082015250565b60006122dc600c83611ba8565b91506122e7826122a6565b602082019050919050565b6000602082019050818103600083015261230b816122cf565b9050919050565b7f4e487b7100000000000000000000000000000000000000000000000000000000600052603260045260246000fd5b7f416420697320636c6f7365640000000000000000000000000000000000000000600082015250565b6000612377600c83611ba8565b915061238282612341565b602082019050919050565b600060208201905081810360008301526123a68161236a565b9050919050565b7f4d617820696e666c75656e636572732072656163686564000000000000000000600082015250565b60006123e3601783611ba8565b91506123ee826123ad565b602082019050919050565b60006020820190508181036000830152612412816123d6565b9050919050565b7f446561646c696e65207061737365640000000000000000000000000000000000600082015250565b600061244f600f83611ba8565b915061245a82612419565b602082019050919050565b6000602082019050818103600083015261247e81612442565b9050919050565b7f416c7265616479206a6f696e6564000000000000000000000000000000000000600082015250565b60006124bb600e83611ba8565b91506124c682612485565b602082019050919050565b600060208201905081810360008301526124ea816124ae565b9050919050565b7f416d6f756e74206d7573742062652067726561746572207468616e2030000000600082015250565b6000612527601d83611ba8565b9150612532826124f1565b602082019050919050565b600060208201905081810360008301526125568161251a565b905091905056fea264697066735822122079efd4bb20914df885cf6b515102229cd275b34a1b02c7c916b44c80273e1f3564736f6c63430008130033",
  "immutableReferences": {},
  "source": "// SPDX-License-Identifier: MIT\r\npragma solidity ^0.8.19;\r\n\r\ncontract AdContract {\r\n    struct Ad {\r\n        uint256 advertiserId;   //  ID (JWT userId  )\r\n        uint256 reward;         // \r\n        uint256 maxInfluencer;  //   \r\n        uint256 deadline;       //    timestamp\r\n        bytes32 metadataHash;   //     \r\n        uint256 acceptedCount;  //  \r\n        bool isClosed;\r\n    }\r\n\r\n    struct Influencer {\r\n        uint256 influencerId;   //  ID (JWT userId  )\r\n        bool paid;\r\n        uint256 joinTime;\r\n    }\r\n\r\n    mapping(uint256 => Ad) public ads;\r\n    mapping(uint256 => mapping(uint256 => Influencer)) public adInfluencerMap; // adId => influencerId => Influencer\r\n    mapping(uint256 => mapping(uint256 => bool)) public hasJoinedAd; //   : adId => influencerId => bool\r\n\r\n    uint256 public nextAdId;\r\n    // nextInfluencerId  - JWT userId   \r\n\r\n    //  \r\n    event AdCreated(uint256 indexed adId, uint256 indexed advertiserId, uint256 reward);\r\n    event DepositSuccess(address indexed user, uint256 amount);\r\n    event JoinedAd(uint256 indexed adId, uint256 indexed influencerId);\r\n    event PaidInfluencer(uint256 indexed adId, uint256 indexed influencerId, address indexed walletAddress, uint256 reward);\r\n    event RefundedAdvertiser(uint256 indexed adId, uint256 indexed advertiserId, address indexed walletAddress, uint256 amount);\r\n\r\n    constructor() {\r\n        nextAdId = 0;\r\n        // nextInfluencerId  \r\n    }\r\n\r\n    // () \r\n    function deposit() public payable {\r\n        require(msg.value > 0, \"Amount must be greater than 0\");\r\n        emit DepositSuccess(msg.sender, msg.value);\r\n    }\r\n\r\n    //     - advertiserId  \r\n    function addContract(\r\n        uint256 advertiserId,   //  JWT userId  \r\n        uint256 reward,\r\n        uint256 maxInfluencer,\r\n        uint256 deadline,\r\n        bytes32 metadataHash\r\n    ) public payable {\r\n        require(msg.value >= reward * maxInfluencer, \"Insufficient payment for all rewards\");\r\n        require(reward > 0, \"Reward must be greater than 0\");\r\n        require(maxInfluencer > 0, \"Max influencer must be greater than 0\");\r\n        require(deadline > block.timestamp, \"Deadline must be in the future\");\r\n        require(advertiserId > 0, \"Invalid advertiser ID\"); //    \r\n\r\n        //    -  advertiserId \r\n        ads[nextAdId] = Ad({\r\n            advertiserId: advertiserId, //  JWT userId  \r\n            reward: reward,\r\n            maxInfluencer: maxInfluencer,\r\n            deadline: deadline,\r\n            metadataHash: metadataHash,\r\n            acceptedCount: 0,\r\n            isClosed: false\r\n        });\r\n\r\n        emit AdCreated(nextAdId, advertiserId, reward); \r\n        nextAdId++;\r\n    }\r\n\r\n    function joinAd(uint256 adId, uint256 influencerId) public {\r\n        require(adId < nextAdId, \"Invalid adId\");\r\n        require(influencerId > 0, \"Invalid influencer ID\");\r\n\r\n        Ad storage ad = ads[adId];\r\n\r\n        require(!ad.isClosed, \"Ad is closed\");\r\n        require(ad.acceptedCount < ad.maxInfluencer, \"Max influencers reached\");\r\n        require(ad.deadline > block.timestamp, \"Deadline passed\");\r\n        require(!hasJoinedAd[adId][influencerId], \"Already joined\");\r\n\r\n        adInfluencerMap[adId][influencerId] = Influencer({\r\n            influencerId: influencerId, \r\n            paid: false,\r\n            joinTime: block.timestamp\r\n        });\r\n\r\n        hasJoinedAd[adId][influencerId] = true;\r\n\r\n        ad.acceptedCount++;\r\n\r\n        if (ad.acceptedCount >= ad.maxInfluencer) {\r\n            ad.isClosed = true;\r\n        }\r\n\r\n        emit JoinedAd(adId, influencerId); \r\n    }\r\n\r\n    //   (   )\r\n    function payInfluencer(uint256 adId, uint256 influencerId, address walletAddress) public {\r\n        require(adId < nextAdId, \"Invalid adId\");\r\n        require(influencerId > 0, \"Invalid influencer ID\");\r\n        require(walletAddress != address(0), \"Invalid wallet address\");\r\n\r\n        Ad storage ad = ads[adId];\r\n        Influencer storage inf = adInfluencerMap[adId][influencerId];\r\n\r\n        require(inf.influencerId != 0, \"Influencer not joined\");\r\n        require(!inf.paid, \"Already paid\"); \r\n        require(address(this).balance >= ad.reward, \"Insufficient balance\"); \r\n\r\n        inf.paid = true;\r\n        payable(walletAddress).transfer(ad.reward); //\r\n\r\n        emit PaidInfluencer(adId, influencerId, walletAddress, ad.reward);\r\n    }\r\n\r\n    //    \r\n    function payMultipleInfluencers(\r\n        uint256 adId, \r\n        uint256[] memory influencerIds, \r\n        address[] memory walletAddresses\r\n    ) public {\r\n        require(adId < nextAdId, \"Invalid adId\");\r\n        require(influencerIds.length == walletAddresses.length, \"Arrays length mismatch\");\r\n        require(influencerIds.length > 0, \"Empty arrays\");\r\n\r\n        Ad storage ad = ads[adId];\r\n        require(address(this).balance >= ad.reward * influencerIds.length, \"Insufficient balance\");\r\n\r\n        for (uint256 i = 0; i < influencerIds.length; i++) {\r\n            uint256 influencerId = influencerIds[i];\r\n            address walletAddress = walletAddresses[i];\r\n\r\n            require(influencerId > 0, \"Invalid influencer ID\");\r\n            require(walletAddress != address(0), \"Invalid wallet address\");\r\n\r\n            Influencer storage inf = adInfluencerMap[adId][influencerId];\r\n            require(inf.influencerId != 0, \"Influencer not joined\");\r\n            require(!inf.paid, \"Already paid\");\r\n\r\n            inf.paid = true;\r\n            payable(walletAddress).transfer(ad.reward);\r\n\r\n            emit PaidInfluencer(adId, influencerId, walletAddress, ad.reward);\r\n        }\r\n    }\r\n\r\n    //     (  )\r\n    function refundAdvertiser(uint256 adId, address advertiserWalletAddress) public {\r\n        require(adId < nextAdId, \"Invalid adId\");\r\n        require(advertiserWalletAddress != address(0), \"Invalid wallet address\");\r\n\r\n        Ad storage ad = ads[adId];\r\n        require(block.timestamp > ad.deadline, \"Deadline not passed yet\");\r\n\r\n        uint256 refundAmount = address(this).balance;\r\n        require(refundAmount > 0, \"No funds to refund\");\r\n\r\n        payable(advertiserWalletAddress).transfer(refundAmount);\r\n\r\n        emit RefundedAdvertiser(adId, ad.advertiserId, advertiserWalletAddress, refundAmount);\r\n    }\r\n\r\n    //    \r\n    function getInfluencerInfo(uint256 adId, uint256 influencerId) public view returns (uint256, bool, uint256) {\r\n        Influencer memory inf = adInfluencerMap[adId][influencerId];\r\n        return (inf.influencerId, inf.paid, inf.joinTime);\r\n    }\r\n\r\n    //   \r\n    function getAd(uint256 adId) public view returns (Ad memory) {\r\n        require(adId < nextAdId, \"Invalid adId\");\r\n        return ads[adId];\r\n    }\r\n\r\n    //      \r\n    function checkJoinStatus(uint256 adId, uint256 influencerId) public view returns (bool) {\r\n        return hasJoinedAd[adId][influencerId];\r\n    }\r\n\r\n    //   \r\n    function getBalance() public view returns (uint256) {\r\n        return address(this).balance;\r\n    }\r\n}",
  "sourcePath": "C:\\Users\\renne\\Desktop\\Project\\GreenSalaryBlockchain\\BlockChain\\contracts\\AdContract.sol",
  "compiler": {
    "name": "solc",
    "version": "0.8.19+commit.7dd6d404.Emscripten.clang"
  },
  "schemaVersion": "3.4.16",
  "updatedAt": "2025-06-07T16:10:07.700Z",
  "networkType": "ethereum",
  "devdoc": {
    "kind": "dev",
    "methods": {},
    "version": 1
  },
  "userdoc": {
    "kind": "user",
    "methods": {},
    "version": 1
  }
}